:020000040800F2
:1000000000000120A51C0008251C0008271C000872
:10001000291C00082B1C00082D1C000800000000F3
:10002000000000000000000000000000014E000879
:100030002F1C000800000000914E0008311C000831
:10004000ED1C0008ED1C0008ED1C0008ED1C00086C
:10005000ED1C0008ED1C0008ED1C0008ED1C00085C
:10006000ED1C0008ED1C0008ED1C0008ED1C00084C
:10007000ED1C0008ED1C0008ED1C0008ED1C00083C
:10008000ED1C0008ED1C0008ED1C0008ED1C00082C
:10009000ED1C0008ED1C0008ED1C0008ED1C00081C
:1000A000ED1C0008ED1C0008ED1C0008ED1C00080C
:1000B000ED1C0008ED1C0008491C0008ED1C0008A0
:1000C000ED1C0008ED1C0008ED1C0008ED1C0008EC
:1000D000ED1C0008ED1C0008ED1C0008551C000874
:1000E000ED1C0008ED1C0008ED1C0008ED1C0008CC
:1000F000ED1C0008ED1C0008ED1C0008ED1C0008BC
:10010000ED1C0008ED1C0008ED1C0008ED1C0008AB
:10011000ED1C0008ED1C0008ED1C0008ED1C00089B
:10012000ED1C0008ED1C0008ED1C0008ED1C00088B
:1001300000000000000000000000000000000000BF
:1001400000000000000000000000000000000000AF
:10015000000000000000000000000000000000009F
:10016000000000000000000000000000000000008F
:10017000000000000000000000000000000000007F
:10018000000000000000000000000000000000006F
:10019000000000000000000000000000000000005F
:1001A000000000000000000000000000000000004F
:1001B000000000000000000000000000000000003F
:1001C000000000000000000000000000000000002F
:1001D000000000000000000000000000000000001F
:0401E0005FF8E0F1F3
:1001F00010B5054C237833B9044B13B10448AFF361
:1002000000800123237010BD740000200000000056
:10021000D45D000808B5034B1BB103490348AFF395
:10022000008008BD0000000078000020D45D0008B8
:1002300070B54FF0FF0C4CF4E06C1CEA11541DBF7C
:100240001CEA135594EA0C0F95EA0C0F00F0DEF847
:100250002C4481EA030621EA4C5123EA4C5350EA2C
:10026000013518BF52EA033541F4801143F480137D
:1002700038D0A0FB02CE4FF00005E1FB02E506F00E
:100280000042E0FB03E54FF00006E1FB03569CF063
:10029000000F18BF4EF0010EA4F1FF04B6F5007F69
:1002A00064F5407404D25FEA4E0E6D4146EB0606DB
:1002B00042EAC62141EA55514FEAC52040EA5E5064
:1002C0004FEACE2EB4F1FD0C88BFBCF5E06F1ED80E
:1002D000BEF1004F08BF5FEA500E50F1000041EB45
:1002E000045170BD06F0004646EA010140EA0200F2
:1002F00081EA0301B4EB5C04C2BFD4EB0C0541EA14
:10030000045170BD41F480114FF0000E013C00F328
:10031000AB8014F1360FDEBF002001F0004170BD4C
:10032000C4F10004203C35DA0C341BDC04F1140465
:10033000C4F1200500FA05F320FA04F001FA05F2F1
:1003400040EA020001F0004221F0004110EBD370BE
:1003500021FA04F642EB06015EEA430E08BF20EAEA
:10036000D37070BDC4F10C04C4F1200500FA04F38D
:1003700020FA05F001FA04F240EA020001F000411F
:1003800010EBD37041F100015EEA430E08BF20EA92
:10039000D37070BDC4F1200500FA05F24EEA020EDA
:1003A00020FA04F301FA05F243EA020321FA04F009
:1003B00001F0004121FA04F220EA020000EBD370C0
:1003C0005EEA430E08BF20EAD37070BD94F0000FC0
:1003D0000FD101F00046400041EB010111F4801FF4
:1003E00008BF013CF7D041EA060195F0000F18BFA5
:1003F000704703F00046520043EB030313F4801FE1
:1004000008BF013DF7D043EA0603704794EA0C0F9A
:100410000CEA135518BF95EA0C0F0CD050EA4106B0
:1004200018BF52EA4306D1D181EA030101F000412D
:100430004FF0000070BD50EA410606BF1046194655
:1004400052EA430619D094EA0C0F02D150EA013661
:1004500013D195EA0C0F05D152EA03361CBF1046A2
:1004600019460AD181EA030101F0004141F0FE4141
:1004700041F470014FF0000070BD41F0FE4141F4C5
:10048000780170BD81F0004102E000BF83F00043BD
:1004900030B54FEA41044FEA430594EA050F08BF1F
:1004A00090EA020F1FBF54EA000C55EA020C7FEAE3
:1004B000645C7FEA655C00F0E2804FEA5454D4EB60
:1004C0005555B8BF6D420CDD2C4480EA020281EA2A
:1004D000030382EA000083EA010180EA020281EA62
:1004E0000303362D88BF30BD11F0004F4FEA0131B4
:1004F0004FF4801C4CEA113102D0404261EB4101C3
:1005000013F0004F4FEA03334CEA133302D0524248
:1005100063EB430394EA050F00F0A780A4F1010404
:10052000D5F1200E0DDB02FA0EFC22FA05F280183E
:1005300041F1000103FA0EF2801843FA05F3594124
:100540000EE0A5F120050EF1200E012A03FA0EFCA3
:1005500028BF4CF0020C43FA05F3C01851EBE371CD
:1005600001F0004507D54FF0000EDCF1000C7EEBEA
:1005700000006EEB0101B1F5801F1BD3B1F5001F28
:100580000CD349085FEA30004FEA3C0C04F1010447
:100590004FEA445212F5800F80F09A80BCF1004F70
:1005A00008BF5FEA500C50F1000041EB045141EAF2
:1005B000050130BD5FEA4C0C404141EB0101013CBB
:1005C00028BFB1F5801FE9D291F0000F04BF0146AA
:1005D0000020B1FA81F308BF2033A3F10B03B3F17C
:1005E00020020CDA0C3208DD02F1140CC2F10C020C
:1005F00001FA0CF021FA02F10CE002F11402D8BF6A
:10060000C2F1200C01FA02F120FA0CFCDCBF41EA35
:100610000C019040E41AA2BF01EB0451294330BD04
:100620006FEA04041F3C1CDA0C340EDC04F11404E1
:10063000C4F1200220FA04F001FA02F340EA0300B8
:1006400021FA04F345EA030130BDC4F10C04C4F1FE
:10065000200220FA02F001FA04F340EA03002946DE
:1006600030BD21FA04F0294630BD94F0000F83F428
:10067000801306BF81F480110134013D4EE77FEA0B
:10068000645C18BF7FEA655C29D094EA050F08BF57
:1006900090EA020F05D054EA000C04BF1946104638
:1006A00030BD91EA030F1EBF0021002030BD5FEA7C
:1006B000545C05D14000494128BF41F0004130BDA4
:1006C00014F580043CBF01F5801130BD01F00045F8
:1006D00045F0FE4141F470014FF0000030BD7FEA6B
:1006E000645C1ABF194610467FEA655C1CBF0B4666
:1006F000024650EA013406BF52EA033591EA030F7D
:1007000041F4002130BD00BF90F0000F04BF002174
:10071000704730B54FF4806404F132044FF00005A7
:100720004FF0000150E700BF90F0000F04BF002120
:10073000704730B54FF4806404F1320410F0004586
:1007400048BF40424FF000013EE700BF42004FEA81
:10075000E2014FEA31014FEA02701FBF12F07F43FE
:1007600093F07F4F81F06051704732F07F4208BFB5
:10077000704793F07F4F04BF41F40021704730B5BC
:100780004FF4607401F0004521F000411CE700BF08
:1007900050EA010208BF704730B54FF000050AE08B
:1007A00050EA010208BF704730B511F0004502D58C
:1007B000404261EB41014FF4806404F132045FEA8E
:1007C000915C3FF4D8AE4FF003025FEADC0C18BF37
:1007D00003325FEADC0C18BF033202EBDC02C2F129
:1007E000200300FA03FC20FA02F001FA03FE40EABB
:1007F0000E0021FA02F11444BDE600BF4A0011D2F6
:1008000012F5001211D20DD56FF47873B3EB62526A
:100810000ED44FEAC12343F0004343EA505323FA76
:1008200002F070474FF00000704750EA013002D1EB
:100830004FF0FF3070474FF00000704780F00040ED
:1008400002E000BF81F0004142001FBF5FEA4103A8
:1008500092EA030F7FEA226C7FEA236C6AD04FEAA8
:100860001262D2EB1363C1BFD218414048404140ED
:10087000B8BF5B42192B88BF704710F0004F40F49F
:10088000000020F07F4018BF404211F0004F41F4BB
:10089000000121F07F4118BF494292EA030F3FD087
:1008A000A2F1010241FA03FC10EB0C00C3F120039A
:1008B00001FA03F100F0004302D5494260EB400029
:1008C000B0F5000F13D3B0F1807F06D340084FEA94
:1008D000310102F10102FE2A51D2B1F1004F40EB89
:1008E000C25008BF20F0010040EA030070474900F1
:1008F00040EB0000013A28BFB0F5000FEDD2B0FA8E
:1009000080FCACF1080CB2EB0C0200FA0CF0AABFB0
:1009100000EBC25052421843BCBFD040184370474E
:1009200092F0000F81F4000106BF80F40000013254
:10093000013BB5E74FEA41037FEA226C18BF7FEA2B
:10094000236C21D092EA030F04D092F0000F08BF6D
:100950000846704790EA010F1CBF0020704712F054
:100960007F4F04D1400028BF40F00040704712F193
:1009700000723CBF00F50000704700F0004343F0F8
:10098000FE4040F4000070477FEA226216BF08462E
:100990007FEA23630146420206BF5FEA412390EAF1
:1009A000010F40F4800070474FF0000304E000BFE7
:1009B00010F0004348BF40425FEA000C08BF704798
:1009C00043F0964301464FF000001CE050EA01025C
:1009D00008BF70474FF000030AE000BF50EA010271
:1009E00008BF704711F0004302D5404261EB41015E
:1009F0005FEA010C02BF84460146002043F0B64383
:100A000008BFA3F18053A3F50003BCFA8CF2083AA7
:100A1000A3EBC25310DB01FA02FC634400FA02FCB0
:100A2000C2F12002BCF1004F20FA02F243EB0200B7
:100A300008BF20F00100704702F1200201FA02FC19
:100A4000C2F1200250EA4C0021FA02F243EB02000C
:100A500008BF20EADC7070474FF0FF3C06E000BFA3
:100A60004FF0010C02E000BF4FF0010C4DF804CD37
:100A70004FEA40024FEA41037FEA226C18BF7FEA47
:100A8000236C11D001B052EA530C18BF90EA010F49
:100A900058BFB2EB030088BFC81738BF6FEAE170D8
:100AA00018BF40F0010070477FEA226C02D15FEA74
:100AB000402C05D17FEA236CE4D15FEA412CE1D0E0
:100AC0005DF8040B704700BF844608466146FFE7A7
:100AD0000FB5FFF7C9FF002848BF10F1000F0FBD89
:100AE0004DF808EDFFF7F4FF0CBF012000205DF882
:100AF00008FB00BF4DF808EDFFF7EAFF34BF012007
:100B000000205DF808FB00BF4DF808EDFFF7E0FF9F
:100B100094BF012000205DF808FB00BF4DF808EDF0
:100B2000FFF7D2FF94BF012000205DF808FB00BF53
:100B30004DF808EDFFF7C8FF34BF012000205DF835
:100B400008FB00BF08B5054C20464FF4806101F05A
:100B50003CFB41F2883002F017FFF5E70018014036
:100B60002DE9F0433E4E3F4D87B03C21304601F029
:100B700062FE3C21284601F05EFE33683A4FD3F80E
:100B800024802B685C6A01F0F5F8814601F0F2F8E8
:100B9000A0EB0900B0F57A7FF8D933685A6A1B6870
:100BA000D80646D590453FDDA8EB020229684B6A7E
:100BB0000968C9064CD59C4245DDE41A394601A8AE
:100BC00004F0D4FC0A21002001AA04F0E7FB22462D
:100BD000264901A804F0CAFC0A21462001AA04F013
:100BE000DDFB336822491A6801A8C2F3001204F041
:100BF000BDFC1421002001AA04F0D0FB2B681D4984
:100C00001A6801A8C2F3001204F0B0FC14214620B7
:100C100001AA04F0C3FB3368D3F824802B685C6A14
:100C200001F0A8F88146B1E7C2F57F42FF324244A5
:100C3000BCE7904502DAA2EB0802B7E7C8F57F48A7
:100C400008F1FF08F3E7C3F57F43FF331C44B5E722
:100C50009C4201DA1C1BB1E7C4F57F44FF34F5E781
:100C60008C1B0020981A00200B5E0008115E000803
:100C7000175E00081E5E00080022034B1B685A62C4
:100C80005A6A8242FCD37047001A0020000000001C
:100C9000F0B5077F0446012F87B011D12E4E317871
:100CA000354679B901F022FE2C4B37701860236865
:100CB0001A6A22F00A021A621A6A42F002021A62E0
:100CC00007B0F0BD0129FBD1002101F00FFE002289
:100CD000234B186023685A62204B224A1B689842B3
:100CE0002DD9C31A13601068FFF70EFD18A3D3E9BE
:100CF0000023FFF79DFA00221B4BFFF799FAFFF73D
:100D00007DFD0026194BC2B2194901A81A702E7038
:100D100004F02CFC01AA1E21304604F03FFB04F035
:100D2000A3FA23681A6A22F00A021A621A6A1A627D
:100D3000104B1A68D36823F00203D360C0E7D2D205
:100D4000C3F57F43FF330344CCE700BFAFF300801C
:100D50009CC420B07268A13FA00000209800002031
:100D60009C000020900000200000E03F9400002044
:100D7000EC5D0008001A002010B50B4C01224FF466
:100D80000051204601F01CFA0A20FFF775FF0022EF
:100D90004FF40051204601F013FA044B1A68D3684F
:100DA00043F00203D36010BD00140140001A00207C
:100DB00000B58BB06B46104A104C1068516803C3E5
:100DC000906818600023CDE90333FFF7D5FFC820F2
:100DD00000F0D6FF00216A46084604F0DFFA2146FB
:100DE00005A804F0E3FB2821002005AA04F0D6FAA8
:100DF00004F03AFAE9E700BFF75D0008281B00207D
:100E000000B591B02422002107A804F0A7FB14220A
:100E1000002101A804F0A2FB022301210693102364
:100E200006A8CDE90A1301F0E5F9014608B172B64A
:100E3000FEE70F23CDE90300CDE90130059001A8BD
:100E400001F0AEFB08B172B6FEE711B05DF804FB2D
:100E500080B59CB000F070FFFFF7D2FF1022002198
:100E600013A804F07BFBA74B4FF4BC619A69A6481A
:100E700042F040029A619A69002502F04002019214
:100E8000019A9A69012642F004029A619A69022441
:100E900002F004020292029A9A69032742F02002A9
:100EA0009A619A694FF4005802F020020392039A63
:100EB0009A6942F010029A619A6902F01002049253
:100EC000049A9A6942F008029A619B69002203F031
:100ED00008030593059B01F073F900223C218B4820
:100EE00001F06EF900224FF40051894801F068F9D1
:100EF0004FF4BC63844813A9CDE91336CDE91554EA
:100F000001F074F80C23814813A9CDE91336159527
:100F1000169701F06BF830237C4813A9CDE91336FE
:100F2000CDE9155401F062F8794813A9CDE91554BB
:100F3000CDE9138601F05AF81022294608A804F0DA
:100F40000DFB1C2229460CA8CDE9065504F006FB32
:100F50002022294613A804F001FB6E4C6E4B20465C
:100F6000C4E9003541F61F43C4E90555C4E903351A
:100F7000A56001F0C3FD08B172B6FEE74FF48053DF
:100F8000204608A9089301F0E5FF08B172B6FEE714
:100F9000204601F0DFFD08B172B6FEE7CDE906009C
:100FA00006A9204602F050F9024608B172B6FEE7E3
:100FB0006023CDE90E00CDE90C30CDE91000129090
:100FC0000CA9204601F0AAFE08B172B6FEE7042281
:100FD00020460CA901F0A2FE08B172B6FEE7CDE9E9
:100FE0001300CDE91500CDE917081A9013A9204682
:100FF00002F060F908B172B6FEE74FF08043474C4B
:10100000CDE90C00C4E900304FF6FF73C4E90330AA
:101010000A23CDE91370CDE91560CDE91730CDE98C
:101020001960A060A06113A920461B9301F0EAFD9E
:1010300008B172B6FEE7CDE90C000CA9204602F01B
:1010400003F9044608B172B6FEE70146102208A86B
:1010500004F084FA1C2221460CA8CDE9064404F0D1
:101060007DFA2022214613A804F078FAA0232C4808
:101070002C4D8460C0E900534FF47A73C0E9033407
:1010800080234461836101F039FD08B172B6FEE747
:101090004FF48053224808A9089301F05BFF08B180
:1010A00072B6FEE71E4801F055FD08B172B6FEE7C4
:1010B000CDE9060006A91A4802F0C6F808B172B6D2
:1010C000FEE76023CDE91000CDE90C300E901290C0
:1010D0000C2213480CA901F021FE08B172B6FEE7FC
:1010E0004FF40053CDE91300CDE9150017901A9085
:1010F00013A90B48189302F0DDF80446A0B172B6AC
:10110000FEE700BF00100240001801400008014047
:1011100000140140B8190020003401408C1B00204D
:10112000E01A0020002C01404E4800F0FDFC4FF476
:10113000E1334D484D49C0E90244C0E900130C2396
:101140000461C0E90534C46102F054F908B172B613
:10115000FEE7474C474B0122C4E900304FF6FF73CE
:10116000C4E903300323CDE913300A23CDE90C0091
:10117000CDE91520CDE91730CDE91920A060A06197
:1011800013A920461B9301F03DFD08B172B6FEE79E
:10119000CDE90C000CA9204602F056F8044608B12F
:1011A00072B6FEE710220146CDE90C0013A804F048
:1011B000D5F90823304D314A2846C5E900234FF6BA
:1011C000FE73AC60C5E90334AC6101F0EFFC08B11B
:1011D00072B6FEE7CDE90C000CA9284602F034F8FF
:1011E00008B172B6FEE700220125234813A9CDE914
:1011F0001325CDE9152201F01FFE044608B172B691
:10120000FEE704F0EBF864221D49174802F00BFBDF
:101210002A461C49144802F070F92146164801F08C
:101220009BFF02F019FB2146174A184802F050FBB9
:10123000174B21461860174A174802F049FB174B15
:1012400021461860164A174802F042FB164B214609
:101250001860164A164802F03BFB164B186002F065
:1012600017FBFEE7E01A00204C1A0020004800405F
:10127000981A002000040040001A002000080040D6
:10128000281B0020D41B0020C05E0008450B00086E
:10129000B41900209C5E0008B10D0008481A002017
:1012A000785E0008BD150008901A0020545E000802
:1012B000610B0008941A002010B5074C012220464B
:1012C00006494FF6FF7302F0C3F82046BDE8104010
:1012D0006422034902F0A7BA4C1A0020D41B002054
:1012E000281B002010B5002204460421144800F0F9
:1012F00067FF01220821124800F062FF002220212E
:101300000F4800F05DFF102101220D4800F058FF4A
:101310004FF4FA620B4B4FF47A701B6894FBF0F0B9
:101320005A634FF4EB629A63FFF742FB0649FFF7FB
:10133000E1FB20B12046BDE8104002F025BB10BD06
:1013400000080140B81900206666E63E3E2238B526
:10135000124B134C1B6805461A64204600220421D8
:1013600000F02EFF20460122082100F029FF204630
:101370000122202100F024FF20460022102100F04D
:101380001FFF0022074B28461B685A634FF47A62FE
:101390009A63BDE8384002F0F7BA00BFE01A0020B7
:1013A00000080140B81900205A2238B5124B134CDE
:1013B0001B6805461A6420460122042100F000FF44
:1013C00020460022082100F0FBFE204600222021BA
:1013D00000F0F6FE20460122102100F0F1FE4FF44D
:1013E0007A62074B28461B685A6300229A63BDE85D
:1013F000384002F0C9BA00BFE01A002000080140DE
:10140000B81900203E2238B5124B134C1B68054614
:101410001A6420460122042100F0D2FE2046002258
:10142000082100F0CDFE20460022202100F0C8FE59
:1014300020460122102100F0C3FE0022074B28465F
:101440001B685A6340F6B8329A63BDE8384002F030
:101450009BBA00BFE01A002000080140B819002024
:101460005A2238B5124B134C1B6805461A642046A5
:101470000022042100F0A4FE20460122082100F0F1
:101480009FFE20460122202100F09AFE20460022E5
:10149000102100F095FE40F6B832074B28461B6835
:1014A0005A6300229A63BDE8384002F06DBA00BF6B
:1014B000E01A002000080140B81900204B22054B1B
:1014C0001B681A640022044B1B685A639A6302F07B
:1014D0005BBA00BFE01A0020B81900204B22024B73
:1014E0001B681A64704700BFE01A002038B5124C20
:1014F0000546FFF7F3FF20460122042100F060FEBD
:1015000020460022082100F05BFE20460122202117
:1015100000F056FE20460022102100F051FE40F659
:10152000B832064B28461B685A6340F64A329A6323
:10153000BDE8384002F028BA00080140B819002080
:1015400070B5124D124C134E2B782B2B00D870BD5A
:10155000FFF7C4FF01220421204600F031FE0022E3
:101560000821204600F02CFE01222021204600F018
:1015700027FE00221021204600F022FE4FF47A625E
:1015800033685A634FF475629A63DDE79400002074
:1015900000080140B81900206B2307B501228DF81F
:1015A00007300DF107014FF6FF73034801F050FFBC
:1015B00003B05DF804FB00BF4C1A0020F8B5002111
:1015C000C64801F0C7FD0421C44801F0C3FD0C2149
:1015D000C34801F0BFFD0024C24EC34FC34D642277
:1015E0003846C04902F01FF9335D613B192BF6D82C
:1015F00001A252F823F000BFE3160008DF1500082F
:1016000055170008F9160008DF150008DF15000857
:10161000DF150008DF150008DF1500089517000822
:10162000EF170008DF150008DF150008371800085D
:10163000DF150008DF150008DF150008DF150008BA
:10164000A7160008DF150008DF150008DF150008E1
:1016500061160008EB160008DF15000803170008E4
:101660004B229F4B04211B6828461A64012200F07C
:10167000A7FD00220821284600F0A2FD012220211A
:10168000284600F09DFD00221021284600F098FD1C
:1016900040F6B832914B1B685A6340F64A329A635F
:1016A0000134E4B29BE7FFF719FF0022042128462A
:1016B00000F086FD01220821284600F081FD00226D
:1016C0002021284600F07CFD01221021284600F050
:1016D00077FD4FF4FA62814B1B685A634FF4EB625B
:1016E000DDE74FF46170FFF731FE4FF4FA70FFF75A
:1016F000E5FEFFF751FFD3E74FF46170FFF754FEAB
:10170000F3E74322764B04211B6828461A64002223
:1017100000F056FD01220821284600F051FD00226C
:101720002021284600F04CFD01221021284600F01F
:1017300047FD4FF49672694B1B685A6340F6C4121A
:1017400041F288309A6302F01FF94FF4FA70FFF704
:10175000B5FE49E05422624B04211B6828461A64F6
:10176000002200F02DFD01220821284600F028FD6E
:1017700000222021284600F023FD012210212846C6
:1017800000F01EFD40F6C412544B1B685A634FF420
:101790009672D5E74FF4E170FFF762FE4FF4FA70EE
:1017A000FFF78CFE40F21A40FFF7D0FD4FF4FA70BD
:1017B000FFF784FE4FF4AF70FFF752FE4FF4FA705C
:1017C000FFF77CFE4FF49670FFF78CFD4FF4FA7034
:1017D000FFF774FE4FF4AF70FFF714FE4FF4FA708A
:1017E000FFF76CFEFFF7D8FE30233370F7E64FF4B7
:1017F000E170FFF707FE4FF4FA70FFF75FFE40F26B
:10180000B630FFF7D1FD4FF4FA70FFF757FE4FF4F3
:10181000C870FFF7F7FD4FF4FA70FFF74FFE40F284
:101820002620FFF75FFD4FF4FA70FFF747FEC82050
:10183000FFF78CFDD2E7FFF783FE3220FFF73EFE75
:10184000FFF74CFE4FF41670FFF780FD3220FFF7D4
:1018500035FE4FF4E170FFF749FE3220FFF72EFE10
:101860004FF42F70FFF7A0FD3220FFF727FE4FF453
:101870004870FFF799FD3220FFF720FE4FF4757096
:10188000FFF734FE3220FFF719FEC820FFF72EFEC7
:101890003220FFF713FE4FF44870FFF785FD32202A
:1018A000FFF70CFE40F2B630FFF77EFD3220FFF767
:1018B00005FEFA20FFF71AFE40F25230FFF746FD10
:1018C0003220FFF7FBFDFFF73BFE3220FFF7F6FD6E
:1018D0004FF4AF70FFF70AFE322038E7B819002046
:1018E000E01A0020281B00204C1A002000080140AC
:1018F000114B07B59A690F2142F001029A619A696A
:101900006FF0010002F001020092009ADA6942F0E1
:101910008052DA61DB69002203F080530193019B5E
:1019200000F052FA054A536823F0E06343F0806305
:10193000536003B05DF804FB00100240000001405A
:10194000102210B5044688B00DEB0200002103F010
:1019500005FE2368174A93420BD1174B9A6942F44C
:1019600000629A619B6903F400630193019B08B0D4
:1019700010BD124A9342FAD10F4B11489A6904A93B
:1019800042F400529A619A6902F400520292029A59
:101990009A6942F010029A619B69C02203F0100319
:1019A0000393039B0223CDE90423079300F01EFB5E
:1019B000DDE700BF002C0140001002400034014070
:1019C0000010014010B504468AB01022002106A87C
:1019D00003F0C4FD2368B3F1804F39D103F504331C
:1019E000DA69002442F00102DA61DA69284802F07B
:1019F00001020192019A9A6906A942F004029A61D1
:101A00009A6902F004020292029A9A6942F008026C
:101A10009A619B69089403F008030393039B4FF4B6
:101A20000043CDE9063400F0E1FA0823194806A97D
:101A3000CDE90634089400F0D9FA174A536823F424
:101A4000407343F0E06343F4807353600AB010BD09
:101A5000124A9342FAD1124B0D48DA6906A942F0B4
:101A60000202DA61DA6902F002020492049A9A69C7
:101A700042F004029A619B69C02203F004030593BB
:101A8000059B0023CDE90623089300F0AFFADDE7BC
:101A900000080140000C014000000140000400402B
:101AA0000010024010B5044686B01022002102A8A2
:101AB00003F054FD2268194B9A422CD103F50233EE
:101AC000DA69002442F00402DA61DA69144802F0AB
:101AD00004020092009A9A6902A942F020029A61D7
:101AE0009B69049403F020030193019B4FF48053FE
:101AF000CDE9023400F07AFA0A4A1E205368052123
:101B000043F0E06343F480535360224600F05CF9F5
:101B10001E2000F08BF906B010BD00BF0008004089
:101B2000001401400000014010B5044686B01022A8
:101B3000002102A803F012FD2268104B9A421BD12B
:101B400003F564439A690E4842F040029A619B692A
:101B50004FF4804203F040030193019B022302A94A
:101B6000CDE90223059300F041FA064A536843F099
:101B7000E06343F0C003536006B010BD002C014089
:101B8000001801400000014010B5044686B0102244
:101B9000002102A803F0E2FC22681F4B9A4239D1CF
:101BA00003F5E433DA691D4842F48022DA61DA6928
:101BB00002A902F480220092009A9A69002442F05D
:101BC00010029A619B694FF4806203F01003019345
:101BD000019B0223CDE902230323059300F006FABB
:101BE0004FF400630D4802A9CDE90234049400F0DB
:101BF000FDF90B4A27205368052123F0300343F0F9
:101C0000E06343F010035360224600F0DDF8272024
:101C100000F00CF906B010BD004800400010014073
:101C200000000140FEE7FEE7FEE7FEE7FEE7704743
:101C300008B500F093F802F065FE012803D0BDE876
:101C4000084003F047B908BD014800F069BE00BF75
:101C5000001A0020014801F0CDBC00BF4C1A002042
:101C60000B4B0246196810B509B90A491960186882
:101C700009490A4C0244091B8A4206D903F036FC82
:101C80000C2303604FF0FF3010BD1A60FCE700BF6B
:101C9000A4000020302000200000012000040000EB
:101CA000704700000C480D490D4A002302E0D4584B
:101CB000C4500433C4188C42F9D30A4A0A4C002396
:101CC00001E013600432A242FBD3FFF7E9FF03F007
:101CD00013FCFFF7BDF870470000002074000020DF
:101CE000C0690008740000202C200020FEE70000DE
:101CF00038B50E4B054618784FF47A73B3FBF0F302
:101D00000B4A1068B0FBF3F000F09EF8044658B997
:101D10000F2D09D8024629464FF0FF3000F054F845
:101D20002046044B1D6038BD0120FCE70400002064
:101D30000000002008000020074A08B513680320AF
:101D400043F01003136000F02DF80F20FFF7D0FFD1
:101D5000FFF7CEFD002008BD00200240034A044BDF
:101D600011681B780B441360704700BFD81B00201C
:101D700004000020014B1868704700BFD81B0020EA
:101D800038B50446FFF7F6FF0546631C1EBF044B3B
:101D90001B78E418FFF7EEFF431BA342FAD338BDCC
:101DA0000400002007490302CA6803F4E06322F438
:101DB000E0621204120C134343F0BF6343F4003398
:101DC000CB60704700ED00E0164B30B5DC68C4F323
:101DD0000224C4F10703251D042B28BF0423062D6C
:101DE0004FF0FF3598BF002405FA03F388BF033C8A
:101DF00021EA0303A34005FA04F422EA04020028BE
:101E000043EA0203ACBF00F16040074A4FEA031304
:101E1000DBB2ABBF00F5614000F00F0080F800338B
:101E2000135430BD00ED00E014ED00E0002808DBA5
:101E30000123420900F01F0003FA00F0014B43F8B0
:101E40002200704700E100E00138B0F1807F0AD243
:101E5000F021064B064A586082F823100020072222
:101E600098601A6070470120704700BF10E000E0E2
:101E700000ED00E090F82130022B06D004238363AC
:101E8000002380F820300120704703681A6822F090
:101E90000E021A601A6822F001021A600123D0E9CA
:101EA0000F218B4053604FF48073038400207047F0
:101EB00008B590F82130022B03D00423836301205E
:101EC00008BD036843491A6822F00E021A601A68B6
:101ED00022F001021A60404A934241D98B4238D025
:101EE00014318B4237D014318B4236D014318B42AF
:101EF00023D014318B4223D014318B4223D0934210
:101F000024D002F56272934223D01432934222D03D
:101F10001432934221D01432934214BF4FF48033D1
:101F20004FF480532D4A53604FF480730384436B06
:101F3000002B4DD098470020C2E74FF48053F1E7C3
:101F40004FF48033EEE74FF48013EBE74FF08073EC
:101F5000E8E70123E6E71023E4E74FF48073E1E7C5
:101F60008B422ED01E498B422DD014318B422CD067
:101F700014318B4219D014318B4219D014318B4259
:101F800019D093421AD0174A93421AD0143293426E
:101F900019D01432934218D01432934214BF4FF424
:101FA00080334FF48053104ABDE74FF48053FAE773
:101FB0004FF48033F7E74FF48013F4E74FF080736A
:101FC000F1E70123EFE71023EDE74FF48073EAE731
:101FD000184675E7080002408000024000040240F5
:101FE0001C00024008040240000002402DE9F74FA7
:101FF000002216466B4F6C4BDFF8B4C1DFF8B4E13A
:102000000C6834FA06F502D103B0BDE8F08F4FF04A
:10201000010808FA06F804EA080538EA040440F062
:1020200082804C68032C07D8013C022C00F28D8082
:10203000DFE804F09EA3A900122C00F0A18074D860
:10204000112C00F09780FF2D98BF82464FF00F09AA
:1020500088BF00F1040A4FEA8604DAF8008088BFDE
:10206000203C09FA04FB28EA0B0802FA04F448EAC7
:102070000404CAF80040D1F804A01AF0805F52D0DE
:10208000BC6926F0030844F00104BC61BC6908F196
:10209000804804F00104019408F5803806F0030B31
:1020A000019C4FEA8B0BD8F8084009FA0BF924EA97
:1020B00009093E4CA0426AD004F58064A04268D071
:1020C00004F58064A04266D004F58064A04264D028
:1020D00004F58064A04262D060450CBF052406244C
:1020E00004FA0BF444EA0904C8F808401C681AF41E
:1020F000803F14BF2C43AC431C605C681AF4003F63
:1021000014BF2C43AC435C609C681AF4801F14BF5E
:102110002C43AC439C60DC681AF4001F14BF2543B9
:1021200024EA0505DD6001366AE774450DD018D84C
:10213000DFF884904C4508D009F570294C4504D04F
:10214000A9F580194C457FF47EAF8A68EAB1012A6F
:1021500008BFC0F810804FF0080218BFC0F8148004
:1021600071E7DFF858904C45EFD009F58039E9E781
:10217000CA6868E7CA68043265E7CA68083262E775
:10218000CA680C325FE700225DE704225BE70024A7
:10219000A6E70124A4E70224A2E70324A0E704247D
:1021A0009EE700BF0010024000040140000801400B
:1021B000001C01400000221000001210000031102D
:1021C0000AB1016170470904FBE7C36801EA030231
:1021D00021EA030141EA0241016170470122014BFA
:1021E0001A60704720000E420022014B1A607047AF
:1021F00020000E422DE9F341054638B30368DB07A2
:1022000010D42B689F075ED42B68190700F19580C6
:102210002B685A0700F1BF80E869002840F02C8144
:10222000002029E08F4C636803F00C03042B07D0D7
:10223000636803F00C03082B0AD16368DE0307D53B
:1022400023689C03DDD56B68002BDAD1012013E0F5
:102250006B68B3F5803F12D1236843F48033236069
:10226000FFF788FD064623689803CAD4FFF782FD6E
:10227000801B6428F7D9032002B0BDE8F0819BB928
:10228000236823F480332360236823F480232360AE
:10229000FFF770FD064623689903B2D5FFF76AFD84
:1022A000801B6428F7D9E6E7B3F5A02F236803D194
:1022B00043F480232360CFE723F480332360236833
:1022C00023F48023CBE7674C636813F00C0F07D02F
:1022D000636803F00C03082B10D16368DA030DD494
:1022E00023689B0702D52B69012BAFD123686A694C
:1022F00023F0F80343EAC203236085E72A695A4BB7
:102300006AB101221A60FFF735FD064623689F0770
:10231000ECD4FFF72FFD801B0228F7D9ABE71A603A
:10232000FFF728FD0646236898077FF56DAFFFF796
:1023300021FD801B0228F6D99DE7AA69494E4B4B27
:10234000DAB101221A60FFF715FD0446736A9B0794
:102350000DD54FF4FA52464B1B68B3FBF2F30193D1
:1023600000BF019B5A1E0192002BF9D150E7FFF7E5
:1023700001FD001B0228E9D97DE71A60FFF7FAFC8E
:102380000446736A9F077FF543AFFFF7F3FC001B1A
:102390000228F6D96FE7334CE369D80024D401272B
:1023A000E36943F08053E361E36903F080530093F2
:1023B000009B304E3368D90518D5EB68012B26D128
:1023C000236A43F001032362FFF7D4FC41F288380B
:1023D0000646236A9B073FD5002F3FF41DAFE369F4
:1023E00023F08053E36117E70027E2E7336843F403
:1023F00080733360FFF7BEFC80463368DA05DCD4B7
:10240000FFF7B8FCA0EB08006428F6D933E7ABB9B6
:10241000236A41F2883823F001032362236A23F000
:1024200004032362FFF7A6FC0646236A9807D3D568
:10243000FFF7A0FC801B4045F7D91CE7052B236A5A
:1024400003D143F004032362BAE723F001032362BC
:10245000236A23F00403B6E7FFF78CFC801B40459A
:10246000B7D908E70010024000004242800442420F
:1024700000000020007000402A4B5A681C4602F001
:102480000C02082A3DD00023274E022833602BD1AE
:10249000FFF770FC0746236899011FD42B6AB3F538
:1024A000803F05D16268A96822F400320A43626065
:1024B000696A62680B4322F4741213436360012358
:1024C0003360FFF757FC054623689A013FF5A8AE35
:1024D000FFF750FC401B0228F6D9CCE6FFF74AFC78
:1024E000C01B0228D7D9C6E6FFF744FC054623687F
:1024F0009B017FF595AEFFF73DFC401B0228F6D906
:10250000B9E601283FF4B8AE5B682A6A03F480316B
:1025100091427FF49BAE6A6A03F4701393423FF4D6
:102520007FAE93E6001002406000424230B5184B87
:1025300087B002AC03F110052246186859680833C9
:1025400003C2AB421446F7D140F201231149ADF862
:1025500004304B6803F00C02082A17D1C3F38342FE
:1025600006A80244DB0312F8102C0CD54B680A486D
:10257000C3F34043504306AA134413F8143CB0FB82
:10258000F3F007B030BD05485043FAE70248F8E7DA
:10259000FC5E00080010024000127A0000093D00B5
:1025A0002DE9F0410D46044610B90120BDE8F08147
:1025B000444A136803F007038B4228D321688E072F
:1025C00030D4CA0743D43F4A136803F00703AB4231
:1025D00065D822683C4D12F0040F6CD1130706D564
:1025E0006B68226923F4605343EAC2036B60FFF710
:1025F0009DFF6B68354AC3F30313D35CD840344B5B
:102600001860344B1868FFF773FB0020CEE713689F
:1026100023F007030B431360136803F007038B4297
:10262000C3D1CBE7284B11F0040F1EBF5A6842F408
:10263000E0625A60080742BF5A6842F460525A602A
:102640005A68A06822F0F00202435A60B9E7626853
:102650001D4E012A33681AD113F4003FA5D07368C8
:1026600041F2883823F0030313437360FFF782FBC2
:1026700007467368626803F00C03B3EB820FA2D0C5
:10268000FFF778FBC01B4045F3D903208EE7022AF1
:1026900002D113F0007FE1E713F0020FDEE71368C9
:1026A00023F007032B431360136803F00703AB42C7
:1026B0007FF47BAF8DE76B68E16823F4E0630B4345
:1026C0006B608BE70020024000100240E45E0008CF
:1026D0000000002008000020044B054A5B68C3F39B
:1026E0000223D35C034A1068D840704700100240B0
:1026F000F45E000800000020044B054A5B68C3F349
:10270000C223D35C034A1068D840704700100240CF
:10271000F45E000800000020036A70B523F0010396
:102720000362036A446882690D6822F073022A43D7
:102730008D6823F002032B430E4DA84202D00E4EAB
:10274000B04210D1CE6823F008033343A84223F0EF
:10275000040302D0084DA84205D1D1E9055624F45E
:10276000407435432C43446082614A68426303628B
:1027700070BD00BF002C014000340140036A70B5F9
:1027800023F480730362036A4468C2690D6822F00F
:1027900073022A438D6823F4007343EA0523114D25
:1027A000A84203D005F50065A84214D1CD6823F4F2
:1027B000006343EA05230B4D23F48063A84203D052
:1027C00005F50065A84206D1D1E9055624F4405428
:1027D000354344EA05144460C2614A68C263036237
:1027E00070BD00BF002C0140036A30B523F4805354
:1027F0000362036A4468C2690D6822F4E64242EA51
:1028000005228D6823F4005343EA0533084DA8429E
:1028100003D005F50065A84204D14D6924F4804435
:1028200044EA85144460C2614A680264036230BDB0
:10283000002C01407047034630B590F83E2090F8D8
:102840003F0093F8425093F84340D2B2C0B2EDB289
:10285000E4B2C1B9012A45D1012D45D1022283F844
:102860003E2083F842201A68116A21F001011162AA
:10287000116A41F00101002011621A68136843F0E7
:102880000103136030BD042911D101282AD1012C84
:10289000F8D1022283F83F2083F843201A68116A96
:1028A00021F010011162116A41F01001E3E7012AE1
:1028B00018D1012818D1012DE4D1012CE2D1022236
:1028C00083F83E2083F83F2083F8422083F843209A
:1028D0001A68116A21F001011162116A41F00101C7
:1028E0001162DCE70120CDE71046CBE7082910D0C4
:1028F00004D841B1042909D0002070470C29FBD12C
:102900000368186C70470368586B70470368986BCE
:1029100070470368D86B70477047704770477047BF
:10292000036810B51A69044691070ED5DA68920754
:102930000BD56FF002021A61012202779B699B0797
:1029400077D0FEF7A5F90023237723681A6950078B
:1029500010D5DA6851070DD56FF004021A61022212
:1029600022779B69204613F4407F68D0FEF790F9E8
:102970000023237723681A6912070FD5DA68100736
:102980000CD56FF008021A6104222277DB69204619
:1029900099075AD0FEF77CF90023237723681A6938
:1029A000D20610D5DA68D0060DD56FF010021A6184
:1029B00008222277DB69204613F4407F4BD0FEF7D4
:1029C00067F90023237723681A69D10708D5DA68E5
:1029D000D20705D56FF0010220461A61FFF79CFF70
:1029E00023681A69100608D5DA68110605D56FF054
:1029F000800220461A6100F084FC23681A6952069E
:102A000008D5DA68500605D56FF0400220461A61F5
:102A1000FFF785FF23681A69910622D5DA689206C6
:102A20001FD56FF020022046BDE810401A6100F06B
:102A300067BCFFF772FF2046FFF770FF83E7FFF7E1
:102A40006CFF2046FFF76AFF92E7FFF766FF20461C
:102A5000FFF764FFA0E7FFF760FF2046FFF75EFF88
:102A6000AFE710BD244A0368904212D002F500621D
:102A700090420ED0B0F1804F0BD0A2F59832904228
:102A800007D002F58062904203D002F58062904246
:102A90001DD14A6823F070031343174A904212D0A5
:102AA00002F5006290420ED0B0F1804F0BD0A2F53B
:102AB0009832904207D002F58062904203D002F52E
:102AC0008062904203D1CA6823F4407313434A6979
:102AD00023F08003134303608B68C3620B68836237
:102AE000054B984203D003F50063984201D10B696E
:102AF0000363012343617047002C014010B5044675
:102B000030B390F83D3003F0FF021BB980F83C2051
:102B1000FEF716FF0223206884F83D30211DFFF7E1
:102B2000A1FF0123002084F8463084F83E3084F869
:102B30003F3084F8403084F8413084F8423084F8E3
:102B4000433084F8443084F8453084F83D3010BD7B
:102B50000120FCE710B5044630B390F83D3003F097
:102B6000FF021BB980F83C20FFF764FE02232068B7
:102B700084F83D30211DFFF775FF0123002084F804
:102B8000463084F83E3084F83F3084F8403084F892
:102B9000413084F8423084F8433084F8443084F87B
:102BA000453084F83D3010BD0120FCE710B50446E7
:102BB00030B390F83D3003F0FF021BB980F83C20A1
:102BC000FEF770FF0223206884F83D30211DFFF7D7
:102BD00049FF0123002084F8463084F83E3084F811
:102BE0003F3084F8403084F8413084F8423084F833
:102BF000433084F8443084F8453084F83D3010BDCB
:102C00000120FCE7F8B50D46044600284DD090F8A9
:102C10003D3003F0FF021BB980F83C20FEF7D2FEE6
:102C20000223214684F83D3051F8040B836823F4D5
:102C3000804323F007038360FFF714FF20682B68AD
:102C400086688269A9681E43AB6922F4407222F04B
:102C5000030241EA0323134323F47C422B69E9690D
:102C60001B0143EA0123E968076A0B43296A22F042
:102C7000FC0243EA01331343696927F022026F68BB
:102C8000866047EA0117836117430123076200202A
:102C900084F8463084F83E3084F83F3084F842307F
:102CA00084F8433084F83D30F8BD0120FCE7000093
:102CB000036A70B523F010030362036A44688269F3
:102CC0000D6822F4E64242EA05228D6823F02003D3
:102CD00043EA0513104DA84203D005F50065A8424C
:102CE00014D1CD6823F0800343EA05130A4D23F085
:102CF0004003A84203D005F50065A84206D1D1E9FA
:102D0000055624F44064354344EA850444608261F6
:102D10004A688263036270BD002C014038B590F8A8
:102D20003C300446012B52D00123082A80F83C3065
:102D30003CD006D8C2B1042A27D0002084F83C0039
:102D400038BD0C2AF9D10068FFF74EFD23680969E8
:102D5000DA6942F40062DA61DA6922F48062DA61E7
:102D6000DA6942EA012230E00068FFF7D5FC236807
:102D700009699A6942F008029A619A6922F004028C
:102D80009A619A690A439A61D7E70068FFF790FF52
:102D9000236809699A6942F400629A619A6922F487
:102DA00080629A619A6942EA0122ECE70068FFF7C3
:102DB000E5FC23680969DA6942F00802DA61DA6938
:102DC00022F00402DA61DA690A43DA61B5E7022027
:102DD000B6E7000070B5046A164E24F001040462E0
:102DE000B0428469056A21D006F50066B0421DD064
:102DF000B0F1804F1AD0A6F59836B04216D006F53D
:102E00008066B04212D006F58066B0420ED044F023
:102E100001021B01DBB222F0F0021A4301F00A01A9
:102E200025F00A0319438261016270BD24F0030496
:102E30002243EEE7002C0140F8B590F83C30044600
:102E4000012B0E46154679D0012380F83C30F368FB
:102E5000006806C975B9FFF7BDFF2368B1689A69B4
:102E600022F00C029A619A690A439A61002084F860
:102E70003C00F8BD042DB66822D1056A090125F091
:102E8000100505628769D0F820E027F4407C1D0317
:102E90004CEA022C2CF4704CADB22EF0A00E01F0D6
:102EA000A00145EA0C0541EA0E01856101628369D2
:102EB00023F440638361836943EA06268661D5E78C
:102EC000082D056A1CD125F480750562C769056A5D
:102ED00027F0030717431B010902DBB227F0F007B5
:102EE00025F4007501F400711F432943C761016295
:102EF000C36923F00C03C361C3691E43C661B5E710
:102F000025F480550562C569076A25F4407545EAD0
:102F100002251B03090325F470459BB227F40057D3
:102F200001F400512B433943C3610162C36923F4A7
:102F30004063C361C36943EA0626DFE7022098E7DE
:102F400010B584680A4324F47F4442EA03222243F2
:102F5000826010BD70B590F83C300446012B4FF0F4
:102F6000020027D0012384F83D00206884F83C301B
:102F7000836823F47F4323F0770383600B68602B1F
:102F80004DD032D8402B62D015D8202B03D009D891
:102F900033F0100208D1826822F07002134343F02C
:102FA000070320E0302BF6D00123002084F83D30C9
:102FB00084F83C0070BD502BF6D14A68CE68016A97
:102FC000056A21F00A0125F00105056283690A43BB
:102FD00023F0F00343EA061383610262836823F05F
:102FE000700343F057038360DEE7702B0CD0B3F51A
:102FF000005FD9D1CB68D1E90121FFF7A1FF226899
:10300000936843F4804308E0CB68D1E90121FFF7DE
:1030100097FF2268936843F077039360C4E74D6895
:10302000CE68016A21F0100101628269036A22F40C
:10303000704223F0A00343EA051342EA063282619C
:103040000362836823F0700343F06703CBE74A68A9
:10305000CE68016A056A21F00A0125F001050562C2
:1030600083690A4323F0F00343EA06138361026293
:10307000836823F0700343F04703B4E710B50124DD
:10308000036A01F01F018C4023EA04030362036A10
:103090008A401A43026210BD10B5044629B990F85F
:1030A0003E30012B1DD0012032E0042907D190F8D9
:1030B0003F30012BF7D1022380F83F3014E008297C
:1030C00007D190F84030012BEDD1022380F8403039
:1030D0000AE090F84130012BE5D1022380F841301D
:1030E00002E0022380F83E3001222068FFF7C6FF8D
:1030F0002368154A93420CD014498B4209D0B3F18E
:10310000804F10D19A6802F00702062A16D10020DB
:1031100010BD596C934241F400415964F2D00B4AFE
:103120009342EFD0EBE70A4A9342EBD002F580627C
:103130009342E7D002F580629342E3D01A6842F0EE
:1031400001021A60E3E700BF002C01400034014097
:1031500000040040FFF7A0BF10B5044600293AD193
:1031600090F83E0094F84230C0B20128DBB266D13C
:10317000012B65D102232068002942D184F83E301A
:1031800084F84230C36843F00203C3600122FFF7B2
:1031900075FF23682B4A934212D002F500629342D6
:1031A0000ED0B3F1804F0BD0A2F59832934207D0E6
:1031B00002F58062934203D002F58062934204D10B
:1031C0009A6802F00702062A03D01A6842F0010248
:1031D0001A60002034E0042905D190F83F0094F8EB
:1031E0004330C0B2C1E708290BBF90F8400094F803
:1031F000410094F8443094F845300CBFC0B2C0B2DE
:10320000B3E7042907D184F83F3084F84330C3681A
:1032100043F00403B9E7082907D184F8403084F863
:103220004430C36843F00803AFE70C2984F8413009
:1032300084F84530AAD1C36843F01003A5E7012004
:1032400010BD00BF002C014030B590F83C30024664
:10325000012B4FF002002AD0136882F83D005C6811
:103260000D6824F070042C4398685C60104CA342F5
:1032700012D004F50064A3420ED0B3F1804F0BD0FE
:10328000A4F59834A34207D004F58064A34203D088
:1032900004F58064A34204D1496820F08000014312
:1032A00099600123002082F83D3082F83C0030BD57
:1032B000002C014090F83C30012B1FD0CB688A686D
:1032C00023F4407313434A6823F4806313430A686A
:1032D00023F4006313430A6923F4805313434A69B8
:1032E00023F400531343CA6923F480431343026851
:1032F0005364002380F83C30184670470220704722
:10330000704770470368DA6822F49072DA605A698D
:1033100022F001025A61026B012A02BFDA6822F030
:103320001002DA60202380F83E30002303637047E8
:1033300010B504460368C1681A6922F440520A4372
:103340001A6182680069D9680243606921F4B0514A
:1033500021F00C0102430A43DA605A69A16922F4A0
:1033600040720A435A610E4A934215D1FFF7C4F9DD
:1033700019234343626820689200B3FBF2F364228E
:10338000B3FBF2F102FB11331B013233B3FBF2F357
:1033900003EB0113836010BDFFF79EF9E8E700BF60
:1033A00000380140F8B504460E4617461D4622680F
:1033B000136836EA030301D1002014E06B1CF7D038
:1033C00095B923680320DA6822F4D072DA605A696A
:1033D00022F001025A61202384F83D3084F83E3007
:1033E000002384F83C30F8BDFEF7C4FCC01B8542C6
:1033F000DDD2E6E710B5044640B390F83D3003F067
:10340000FF021BB980F83C20FEF7BEFB2423226894
:1034100084F83D30D368204623F40053D360FFF78F
:1034200087FF236800201A6922F490421A615A69C2
:1034300022F02A025A61DA6842F40052DA6020234C
:10344000206484F83D3084F83E3010BD0120FCE754
:103450002DE9F843994690F83D300446202B0E465E
:10346000174648D1002944D0002A42D090F83C3079
:10347000012B40D00123002580F83C302123056436
:1034800080F83D30FEF776FCA3688046B3F5805F98
:10349000A784E78403D123690BB935461E46002370
:1034A00084F83C30E38C9BB253B94B4642464021F2
:1034B0002046FFF777FF50B9202384F83D3007E01E
:1034C0004B46424680212046FFF76CFF10B1032097
:1034D000BDE8F88322684EB935F8023BC3F3080310
:1034E0005360E18C013989B2E184DBE716F8013BD6
:1034F000F6E70120ECE70220EAE790F83D30202BC8
:1035000018D1A9B1A2B190F83C30012B12D0C284DD
:1035100000238284212201620168036480F83C3028
:1035200080F83D20CA68184642F08002CA607047A1
:1035300001207047022070477047704708B500238C
:10354000406AC385C384FFF7F8FF08BD704713B511
:1035500090F83E30222B49D18168836AB1F5805FB3
:10356000026833D10169002933D15268C2F30802DD
:1035700023F8022BC48D8362013CA4B2C4851CBB1A
:103580000368DA6822F02002DA60DA6822F48072D6
:10359000DA605A6922F001025A61202280F83E2046
:1035A000026B012A1FD10463DA6822F01002DA608C
:1035B0001A68D20605D501941A6801925B680193D6
:1035C000019B818DFFF7C2FF002010E039B901692E
:1035D00029B95268D2B21A70836A0133CAE75268B5
:1035E00002F07F02F7E7FDF767FEEDE7022002B089
:1035F00010BD0000036837B51A68044612F00F0FBB
:10360000D9685D6908D195065FD58D065DD503B093
:10361000BDE83040FFF79BBF05F0010001F4907555
:10362000054352D0D50705D5CB0542BF236C43F0E7
:1036300001032364550704D518B1236C43F002033A
:103640002364930704D518B1236C43F00403236467
:10365000150707D501F0200303431EBF236C43F079
:1036600008032364236C53B3920604D58B0602D55A
:103670002046FFF76CFF236820465B69256C03F04A
:10368000400305F008051D431BD0FFF73BFE2368F0
:103690005A69550610D55A69A06B22F040025A614A
:1036A00050B1534B4363FEF703FC40B1A06B436B37
:1036B00003B0BDE8304018472046FFF73EFF03B097
:1036C00030BDFFF73AFF2564F9E7206B012855D19B
:1036D000D00653D5CD0651D5002101911A6801922B
:1036E0005A680192019A5A6912F040022AD0A06BDE
:1036F0000268526892B2002AE1D0A58D9542DED9C7
:10370000E2858269202A15D0DA6822F48072DA60B4
:103710005A6922F001025A615A6922F040025A6144
:10372000202284F83E202163DA6822F01002DA6059
:10373000FEF7A0FBE38DA18DC91A89B22046FFF7E1
:1037400005FFBCE7E18D88B2E18D89B20029B6D0D2
:10375000A18D091A89B20029B1D0D86820F49070DF
:10376000D860586920F001005861202084F83E009C
:103770002263DA6822F01002DA60DFE7100626D54D
:103780000D0624D594F83D20212A98D1A168226AFB
:10379000B1F5805F16D12169A1B932F8021BC1F3DE
:1037A000080159602262E28C013A92B2E284002A56
:1037B00085D1DA6822F08002DA60DA6842F04002ED
:1037C000DA607CE7511C216212785A60EBE7500600
:1037D0007FF575AF4A067FF572AFDA68204622F0B2
:1037E0004002DA60202384F83D30FFF7A5FE66E74B
:1037F0003D350008C2858285816203462222002071
:10380000186483F83C0083F83E201B68DA6842F4B1
:103810008072DA605A6942F001025A61DA6842F055
:103820002002DA60704770B490F83E60202E10D10C
:1038300061B15AB190F83C40012C0AD0012480F8C3
:103840003C400024046370BCFFF7D4BF012070BC6F
:1038500070470220FBE70000EFF3058313B16FF020
:1038600005007047EFF31083002BF8D1074B186861
:10387000022806D1EFF31183002BF0D14FF0FF3077
:1038800070470028FAD101221A6070470403002013
:1038900010B5EFF3058313B16FF0050010BDEFF322
:1038A0001084002CF8D1094B1A68022A06D1EFF3D4
:1038B0001183002BF0D14FF0FF30EFE7012AFAD14E
:1038C00002221A6000F0A0FD2046E7E70403002072
:1038D000F0B51446002287B00B460592EFF305823F
:1038E00052BBEFF310823ABB264A1268022A02D179
:1038F000EFF3118202BBF8B100228DF81320002CE7
:1039000030D0216809B90DF11301A569002D08BF58
:1039100018256A1E372AAC462AD86268D20727D4EF
:10392000666966B1B208D4E9027E57B1BEF15B0F99
:1039300002D9246904B1EEB9059807B0F0BD802220
:10394000F1E7BEF1000FF7D12469002CF4D105ACEA
:10395000CDE900C492B200F02AFD01281CBF00236B
:103960000593E9E74FF0180C80220DF11301EEE703
:103970000020E2E7CDE90147009500F0E1FC059069
:10398000DAE700BF0403002008B5EFF3058313B1A5
:103990006FF0050008BDEFF31083002BF8D1074B43
:1039A0001B68022B03D1EFF31183002BF0D1002809
:1039B000F0D000F07FFE0020ECE700BF0403002001
:1039C000034B0360034B0B6080231360704700BF01
:1039D000A8020020A8000020034B0360034B0B60EB
:1039E0004FF480731360704708070020080300201D
:1039F0004FF0FF3200F10803C0E902234360036186
:103A000000230360704700230361704743689A688E
:103A10004B608A609A68516099600368086101335D
:103A20000360704730B50C68631C0AD103695A689B
:103A30004A6091608B6059600368086101330360DC
:103A400030BD00F10802134652681568A542FAD944
:103A5000EDE70369D0E901128A605160596881423B
:103A600008BF5A60002202611A68013A1A60186899
:103A7000704710B5044601F0D5F9A46B01F0F4F9D4
:103A8000B4FA84F0400910BDF8B51546026C04463E
:103A9000866B52B9076847BB406800F043FF054694
:103AA000676001362846A663F8BD65B9806801F0F5
:103AB00047FDA368226C13446268A3609342F0D36D
:103AC0002368A360EDE7C06801F03AFD226CE3686B
:103AD00051429B1A2268E36093423EBF63685B18C1
:103AE000E360022D01D116B1013E0025D9E735462C
:103AF000D7E703461A6C084610B462B1DC6859680F
:103B000014448C4228BF1968DC6028BFD960D9688A
:103B100010BC01F015BD10BC704770B5044601F033
:103B200081F994F8455004F124066DB2002D14DC9F
:103B3000FF2384F8453001F097F901F073F994F808
:103B4000445004F110066DB2002D12DCFF2384F8FE
:103B50004430BDE8704001F087B9636A002BE7D0BC
:103B6000304600F041FE08B100F0C6FE013D6DB2E6
:103B7000DCE72369002BE9D0304600F035FE08B1C0
:103B800000F0BAFE013D6DB2DEE7000038B50D462B
:103B9000044640B94FF0500383F31188BFF36F8F91
:103BA000BFF34F8FFEE701F03DF9D4E90F314B43EE
:103BB0002268D0185B1A13446060E3600020FF2382
:103BC000A063A26084F8443084F8453095B9236935
:103BD00063B104F1100000F007FE38B14FF08052DD
:103BE000094B1A60BFF34F8FBFF36F8F01F03CF9A1
:103BF000012038BD04F11000FFF7FAFE04F12400A3
:103C0000FFF7F6FEF2E700BF04ED00E037B50D4622
:103C10001C4640B94FF0500383F31188BFF36F8FF8
:103C2000BFF34F8FFEE743B94FF0500383F3118882
:103C3000BFF36F8FBFF34F8FFEE74AB191B94FF0DB
:103C4000500383F31188BFF36F8FBFF34F8FFEE7ED
:103C500041B14FF0500383F31188BFF36F8FBFF36F
:103C60004F8FFEE750230193019B502B08D04FF05C
:103C7000500383F31188BFF36F8FBFF34F8FFEE7BD
:103C80000121002D08BF2246C4E90F0584F8461023
:103C900020462260FFF77AFF20469DF8183084F80E
:103CA0004C3003B030BD00002DE9FF4788461F4669
:103CB0000446019240B94FF0500383F31188BFF3DB
:103CC0006F8FBFF34F8FFEE751B9036C43B14FF0D5
:103CD000500383F31188BFF36F8FBFF34F8FFEE75D
:103CE000022F0BD1E36B012B08D04FF0500383F36D
:103CF0001188BFF36F8FBFF34F8FFEE700F002FE16
:103D0000064650B9019B4BB14FF0500383F3118825
:103D1000BFF36F8FBFF34F8FFEE700264FF0000910
:103D2000DFF8E4A037E0019D1DB901F09DF8002007
:103D300050E016B902A800F097FD01F095F800F0E8
:103D4000A7FB01F06FF894F84430FF2B08BF84F80C
:103D5000449094F84530FF2B08BF84F8459001F05B
:103D600083F801A902A800F08BFD002846D101F0DC
:103D700059F8A26BE36B9A422FD101F075F80199C3
:103D800004F1100000F0F6FC2046FFF7C6FE00F03C
:103D90001DFC50B3012601F045F8A26BE36B9A427B
:103DA00001D3022FBFD13A4641462046FFF76CFEB1
:103DB000636A1BB104F1240000F016FD38B14FF026
:103DC0008052114B1A60BFF34F8FBFF36F8F01F01A
:103DD0004BF8012004B0BDE8F08701F045F820461B
:103DE000FFF79BFE00F0F2FBD4E74FF08053CAF8D8
:103DF0000030BFF34F8FBFF36F8FCBE72046FFF745
:103E00008CFE00F0E3FB92E704ED00E02DE9F843BF
:103E1000894690461F46044640B94FF0500383F34D
:103E20001188BFF36F8FBFF34F8FFEE751B9036C5B
:103E300043B14FF0500383F31188BFF36F8FBFF38B
:103E40004F8FFEE7022F0BD1E36B012B08D04FF011
:103E5000500383F31188BFF36F8FBFF34F8FFEE7DB
:103E600001F0C0F8EFF311864FF0500383F311888F
:103E7000BFF36F8FBFF34F8FA26BE36B9A4201D3F7
:103E8000022F22D194F845503A46494620466DB259
:103E9000FFF7FAFD6B1C13D1636A0BB901200BE02D
:103EA00004F1240000F0A0FC0028F7D0B8F1000FC6
:103EB000F4D00120C8F8000086F31188BDE8F8832B
:103EC00001356DB284F84550E8E70020F4E70000C2
:103ED0002DE9F04385B00F460446019240B94FF0FA
:103EE000500383F31188BFF36F8FBFF34F8FFEE74B
:103EF00051B9036C43B14FF0500383F31188BFF302
:103F00006F8FBFF34F8FFEE700F0FCFC064650B901
:103F1000019B4BB14FF0500383F31188BFF36F8FB8
:103F2000BFF34F8FFEE700264FF00008DFF8DC906C
:103F30003BE0019D1DB900F097FF002052E016B94B
:103F400002A800F091FC00F08FFF00F0A1FA00F051
:103F500069FF94F84430FF2B08BF84F8448094F83C
:103F60004530FF2B08BF84F8458000F07DFF01A994
:103F700002A800F085FC00283DD12046FFF779FD1E
:103F800098B3019904F1240000F0F4FB2046FFF7F8
:103F9000C4FD00F01BFB38B94FF08053C9F8003066
:103FA000BFF34F8FBFF36F8F012600F03BFFA56B70
:103FB000002DBED039462046013DFFF79AFDA5638E
:103FC000236963B104F1100000F00EFC38B14FF02A
:103FD00080520E4B1A60BFF34F8FBFF36F8F00F00C
:103FE00043FF012005B0BDE8F0832046FFF795FDB3
:103FF00000F0ECFAD8E72046FFF78FFD00F0E6FA74
:104000002046FFF736FD0028CED096E704ED00E00D
:10401000002330B5064A52F8335002EBC3041DB9F1
:1040200042F83310606030BD0133082BF3D1FAE75A
:10403000DC1B002070B504460D46164600F0F2FE6B
:1040400094F84430FF2B04BF002384F8443094F8E4
:104050004530FF2B04BF002384F8453000F004FFF7
:10406000A36B2BB93246294604F1240000F09CFBD7
:104070002046BDE87040FFF750BD00002DE9F0413B
:10408000044600F0CFFE2F4B2F4D1A682F4F013200
:104090001A602E68002E49D12C601B68012B1FD19D
:1040A000B84640460136FFF7A3FC382E08F1140845
:1040B000F7D1DFF8C480264E4046FFF799FC304622
:1040C000FFF796FC2348FFF793FC2348FFF790FC8B
:1040D0002248FFF78DFC224BC3F80080214B1E6065
:1040E0001420214A136801331360204A6364116865
:1040F000E36A8B4200FB037004F1040188BF136084
:10410000FFF784FC00F0B0FE194B1B6863B12B680D
:10411000DA6AE36A9A4207D24FF08052154B1A606E
:10412000BFF34F8FBFF36F8FBDE8F081104B1B685B
:10413000002BD5D12B68DA6AE36A9A4298BF2C60CB
:10414000CEE700BFD00B00206407002070070020DE
:10415000FC0B0020180C0020440C0020300C002028
:10416000680700206C070020E00B0020E40B002013
:104170002C0C002004ED00E0E80B0020064A136838
:104180001968064B19B94FF0FF321A607047126870
:10419000D268D2685268F8E768070020100C002047
:1041A0002DE9F0470D46DDE909844FEA82094A46C8
:1041B0000646A521206B1F4601F0D0F9226BA9F11C
:1041C000040991446B1E29F0070904F134020F35EC
:1041D00013F8011F02F8011B197809B1AB42F7D19E
:1041E000089D4FF0000A372D28BF3725201DC4E950
:1041F000135AE56284F843A0FFF705FCC5F13805C2
:1042000004F11800FFF7FFFBC4F854A03A4631460A
:1042100048462461A561646284F858A000F0DEFD80
:104220002060B8F1000F01D0C8F80040BDE8F08769
:1042300010B590F8593004463BB9006B00F0AEFF62
:104240002046BDE8104000F0A9BF012BF9D0022B99
:1042500008D04FF0500383F31188BFF36F8FBFF383
:104260004F8FFEE710BD000080B5DFF85C80124F75
:10427000124C134D236863B9124B1B68012BF8D9FC
:104280004FF08053C8F80030BFF34F8FBFF36F8FEC
:10429000EEE700F0C7FDFB68DE68301DFFF7D9FBD5
:1042A0002B68013B2B602368013B236000F0DCFDA1
:1042B0003046FFF7BDFFDDE7440C0020D40B0020A3
:1042C000D00B00207007002004ED00E0F8B5054693
:1042D000154B164E1C6830680F460430FFF7B9FBCB
:1042E0006B1C334607D137B1316811480431BDE842
:1042F000F840FFF78BBB1A686419546007D30D4A66
:1043000010681968BDE8F8400431FFF78BBB0A4A12
:10431000106819680431FFF785FB084B1A68A24240
:1043200088BF1C60F8BD00BF580C00206407002047
:10433000300C00206C07002068070020100C0020C3
:1043400070B586B0DDE90B5445B94FF0500383F3E7
:104350001188BFF36F8FBFF34F8FFEE744B94FF063
:10436000500383F31188BFF36F8FBFF34F8FFEE7C6
:104370005C260496049E5C2E08D04FF0500383F315
:104380001188BFF36F8FBFF34F8FFEE725630225C0
:1043900084F8595005AD01950A9D02940095FFF7E8
:1043A000FFFE2046FFF76AFE059806B070BD2DE9B6
:1043B000F043074685B0900088461646994600F0BF
:1043C00063FE0546E8B15C2000F05EFE0446A8B13D
:1043D000002380F859300D9B056301930C9B3246F6
:1043E00041460290009338464B46FFF7D9FE2046DF
:1043F000FFF744FE012005B0BDE8F083284600F039
:10440000CDFE4FF0FF30F6E710B5002488B007AAC4
:1044100006A905A8CDE90544FFF7D2FA059B079A3E
:104420000293069B1549CDE9004315482346FFF743
:1044300087FFA8B100F00AFB012813D14FF0500309
:1044400083F31188BFF36F8FBFF34F8F4FF0FF32AD
:104450000C4B1A600C4B18600C4B1C6000F06AFD92
:1044600008B010BD0130FBD14FF0500383F3118829
:10447000BFF36F8FBFF34F8FFEE700BF0D5F0008E4
:1044800069420008100C00202C0C0020580C002061
:10449000024A136801331360704700BFDC0B002031
:1044A000014B1868704700BF580C00202DE9F84FE9
:1044B0003B4B1B68002B6DD13A4B1D6801351D60CD
:1044C000BDB9394B1A68126842B14FF0500383F3FB
:1044D0001188BFF36F8FBFF34F8FFEE7334A196820
:1044E000106818601160324A136801331360FFF7D7
:1044F00045FE304E002433682F4FAB4210D92F4B6E
:104500001B68DA6A14235343FB58022B28BF01248B
:104510002B4B1B68002B0CBF20460120BDE8F88FF9
:10452000DFF88490DFF8A0A0D9F800301B681BB931
:104530004FF0FF333360E2E7D9F80030DB68D3F89F
:104540000CB0DBF80420954201D23260D7E70BF1C2
:1045500004084046FFF77DFADBF828201AB10BF17A
:104560001800FFF776FA1423DBF82C00DAF80020A5
:104570004146904288BFCAF8000003FB0070FFF775
:1045800045FA0E4BDBF82C201968CB6A9A4228BFFB
:104590000124C9E70B4A0024136801331360B7E70D
:1045A000DC0B0020580C0020680700206C0700205E
:1045B000140C0020100C002070070020640700205D
:1045C0005C0C0020D80B0020E40B00202DE9F0410A
:1045D0002F4C236843B94FF0500383F31188BFF386
:1045E0006F8FBFF34F8FFEE700F01CFC2368013B89
:1045F000236024682CB1002400F036FC2046BDE87E
:10460000F081244B1B68002BF5D0234D234EDFF89F
:10461000A0801DE0EB68DC68271D04F11800FFF79F
:1046200018FA3846FFF715FA1420E36A326800FBDF
:1046300003809342394688BF3360FFF7E7F9184B90
:10464000E26A1B68DB6A9A4202D30122154B1A60A8
:104650002B68002BDED10CB1FFF790FD124D2C68BA
:1046600044B101270F4EFFF721FF00B13760013C35
:10467000F9D12C600B4B1B68002BBCD04FF0805243
:104680000A4B1A60BFF34F8FBFF36F8F0124B3E75C
:10469000DC0B0020D00B0020180C0020E40B0020C5
:1046A000640700205C0C0020D80B002004ED00E023
:1046B0007007002008B540B94FF080520D4B1A60CA
:1046C000BFF34F8FBFF36F8F08BD0B4B196841B11C
:1046D0004FF0500383F31188BFF36F8FBFF34F8FF9
:1046E000FEE7FFF7D5FEFFF7F1FDFFF76FFF0028AC
:1046F000E2D0E9E704ED00E0DC0B0020184BF0B558
:104700001A68184B12B101221A60F0BD1A60164ADD
:1047100014271646154D2B6807FB03F15458501803
:1047200094B14468083164680A44944208BF6268DE
:10473000446008BF4260142202FB03625268D168E1
:104740000B4A11602B60E0E743B94FF0500383F34D
:104750001188BFF36F8FBFF34F8FFEE7013BDBE79D
:10476000DC0B00205C0C002070070020E40B002014
:104770006407002010B50C4640B94FF0500383F396
:104780001188BFF36F8FBFF34F8FFEE7054B19689A
:104790001831FFF747F92046BDE810400121FFF727
:1047A00095BD00BF6407002038B50D46144640B9DA
:1047B0004FF0500383F31188BFF36F8FBFF34F8F18
:1047C000FEE7084B19681831FFF720F9002C214645
:1047D00008BF2846BDE8384018BF4FF0FF30FFF74C
:1047E00075BD00BF6407002038B5C368DC6844B9F4
:1047F0004FF0500383F31188BFF36F8FBFF34F8FD8
:10480000FEE704F118052846FFF723F9104B1B6853
:10481000DBB9251D2846FFF71CF90E4A1420116844
:10482000E36A8B42294688BF13600B4A00FB0320D2
:10483000FFF7ECF8094BE26A1B68DB6A9A4285BF16
:104840000120074B0020186038BD29460548EFE7D6
:10485000DC0B0020E40B0020700700206407002020
:104860005C0C0020180C0020034B1B680360034BFA
:104870001B684360704700BF140C0020580C0020D8
:1048800070B50C46054640B94FF0500383F31188CC
:10489000BFF36F8FBFF34F8FFEE741B94FF0500367
:1048A00083F31188BFF36F8FBFF34F8FFEE700F0E4
:1048B000B9FA0F4B196823685A1C10D00D482E689E
:1048C00000686A68864201D08A420FD9881A8342FA
:1048D0000AD95B1A134428462360FFF7C5FF00245A
:1048E00000F0C2FA204670BD002323600124F7E7E0
:1048F000580C0020140C00200122014B1A60704754
:104900005C0C0020054B1B6833B1054B1B68002B6A
:104910000CBF022000207047012070472C0C0020A3
:10492000DC0B002038B508B9002038BD1B4B1C68D3
:10493000844208D04FF0500383F31188BFF36F8F88
:10494000BFF34F8FFEE7236D43B94FF0500383F35E
:104950001188BFF36F8FBFF34F8FFEE7E16AE26C00
:10496000013B91422365DFD0002BDDD1251D284678
:10497000FFF76FF81420E36CC3F13802A261084A14
:10498000E36211688B4288BF1360064A294600FB28
:104990000320FFF73BF80120C7E700BF64070020B2
:1049A000E40B002070070020F7B5114C00F03AFA34
:1049B0002568BDB90F4F104E3846FFF719F830463D
:1049C000FFF716F80D4B10211F600D4B0A201E60DB
:1049D0000C4A0D4B0095FFF719F9206010B10B49F7
:1049E000FFF716FB03B0BDE8F04000F03DBA00BF92
:1049F000840D0020080D00201C0D0020600C0020FC
:104A0000640C0020680C0020340D0020125F0008A8
:104A1000914208B5416000610AD8D21A83699A426E
:104A20000DD2084B011D1868FEF7FCFF002008BDE1
:104A30009A4201D2994202D2034B011DF3E70120B1
:104A4000F5E700BF640C0020600C002010B588B0B2
:104A5000FFF7AAFF124B1B68B3B1002407AA06A9EF
:104A600005A8CDE90544FEF7B7FF059B079A029319
:104A7000069B0C49019302230B4800932346FFF742
:104A80005FFC0A4B186040B94FF0500383F3118864
:104A9000BFF36F8FBFF34F8FFEE7012008B010BD4B
:104AA000840D0020175F0008854B0008880D00204A
:104AB0007FB5164604461A4640B94FF0500383F3BB
:104AC0001188BFF36F8FBFF34F8FFEE70D4D28683E
:104AD00080B10529CDE9001602940DDCFFF712FF25
:104AE0000023022818BF1A46694608BF089A28689A
:104AF000FFF7DAF804B070BD00236946FFF786F9C6
:104B0000F8E700BF840D00202DE9F3414FF00008C5
:104B10001A4D2B681A6832B9194A11681360296056
:104B200002B0BDE8F081DB68DC681E68271D3846EE
:104B3000FEF78FFF636A20469847E369012BE8D1AF
:104B4000A36933449E4206D23946286863602461D3
:104B5000FEF768FFDDE70023324619462046CDF810
:104B60000080FFF7A5FF0028D3D14FF0500383F357
:104B70001188BFF36F8FBFF34F8FFEE7600C0020EB
:104B8000640C00202DE9F04F774EDFF8EC91B04631
:104B900087B03368D3F800B0BBF1000F48D0DB68B2
:104BA000D3F800A0FFF774FCFFF77AFC6F4D0446C2
:104BB0002B682F4698423DD2FFF7A6FF2C60FFF7E7
:104BC00005FD4FF0000BDFF8ACA10022DAF8000081
:104BD00002A9FFF77DF90028DBD0029B0498002B87
:104BE00072DB049C6369002B76D1FFF759FC3B68AC
:104BF0000546984201D2FFF787FF029B3D60092BD3
:104C0000E3D801A252F823F0E14C0008E14C00087F
:104C1000E14C0008CB4B00082F4D0008554D000813
:104C2000E14C0008E14C0008CB4B00082F4D000878
:104C3000DA46B7E72860BBF1000F2AD0824541D899
:104C4000FFF7C4FCD8F80030DB68DD68281DFEF7EC
:104C500000FFEB69012B18D1A9695346224628466B
:104C60005144FFF7D5FE80B100235246194628462D
:104C70000093FFF71DFF40B94FF0500383F31188F5
:104C8000BFF36F8FBFF34F8FFEE728466B6A9847DD
:104C900097E7374B1B681A68B2FA82F25209354B14
:104CA000AAEB04011868FFF7C5F9FFF78FFC00288D
:104CB00087D14FF08053C9F80030BFF34F8FBFF357
:104CC0006F8F7EE70022EAE7039B05999847029BD6
:104CD000002BFFF67AAF84E7201DFEF7BAFE84E7CB
:104CE000A169039B2A4620461944FFF791FE00283C
:104CF0003FF46BAF636A20469847E369012B7FF46A
:104D000064AF0023A269039920460A44CDF800B09D
:104D10001946FFF7CDFE00287FF457AF4FF0500340
:104D200083F31188BFF36F8FBFF34F8FFEE70399B3
:104D3000A16141B94FF0500383F31188BFF36F8F26
:104D4000BFF34F8FFEE72B462A4620462944FFF744
:104D50005FFE3AE794F82C30002B7FF436AF204604
:104D600000F01CFA31E700BF600C0020300D00207D
:104D7000640C0020840D002004ED00E0064800686B
:104D8000006880F3088862B661B6BFF34F8FBFF347
:104D90006F8F00DF00BF000008ED00E0002382B04D
:104DA00001930D4B1B68013308D04FF0500383F380
:104DB0001188BFF36F8FBFF34F8FFEE74FF05003A3
:104DC00083F31188BFF36F8FBFF34F8F019B002BCD
:104DD000FCD002B0704700BF0C0000204FF0807381
:104DE00040F8043C054B21F0010140F8081C40F854
:104DF0000C3C40F8202C4038704700BF9D4D000807
:104E0000074B19680868B0E8F00F80F30988BFF312
:104E10006F8F4FF0000080F311884EF00D0E704739
:104E2000640700204FF0500383F31188BFF36F8FA6
:104E3000BFF34F8F0A4A13680133012B13600DD162
:104E4000084B1B6813F0FF0F08D04FF0500383F39B
:104E50001188BFF36F8FBFF34F8FFEE7704700BF1E
:104E60000C00002004ED00E0084A136843B94FF03D
:104E7000500383F31188BFF36F8FBFF34F8FFEE7AB
:104E8000013B13600BB983F3118870470C000020BD
:104E9000EFF30980BFF36F8F0D4B1A6820E9F00F15
:104EA00010602DE908404FF0500080F31188FFF7A3
:104EB00025FC4FF0000080F31188BDE80840196818
:104EC0000868B0E8F00F80F30988BFF36F8F704770
:104ED0006407002008B54FF0500383F31188BFF337
:104EE0006F8FBFF34F8FFFF7E1FA18B14FF0805289
:104EF000024B1A60002383F3118808BD04ED00E023
:104F00000023084A084913600B604FF47A71074B7D
:104F10001B68B3FBF1F30649013B0B6007231360E9
:104F2000704700BF10E000E018E000E00000002043
:104F300014E000E013B5264B00211A78D2B201929A
:104F4000FF221A701B78234ADBB28DF803309DF8DC
:104F5000033003F05003137007231F4A13609DF8BA
:104F600003005C1E00060CD411B1032B136011D09A
:104F70004FF0500383F31188BFF36F8FBFF34F8F50
:104F8000FEE79DF8033001215B00DBB28DF80330B2
:104F90002346E4E74FF4407300241360019B0C4A5E
:104FA000DBB213700D4B1A6842F470021A601A6873
:104FB00042F070421A60FFF7A3FF094B1C60FFF735
:104FC000DDFEFFF79BFBFFF7E9FE204602B010BDB8
:104FD00000E400E08C0D0020900D002020ED00E0AA
:104FE0000C000020EFF305830F2B0ED9104A9B5CB9
:104FF000104A12789A4208D94FF0500383F311886F
:10500000BFF36F8FBFF34F8FFEE70B4B0B4A1B684D
:10501000126803F4E063934208D94FF0500383F31E
:105020001188BFF36F8FBFF34F8FFEE7704700BF4C
:10503000F0E300E08C0D00200CED00E0900D00206E
:1050400010B50F4B1A461B688342FBD354681119E5
:10505000884201BF4168104609195160446801192E
:105060008B4207D1074909688B421FBF59681B68EB
:10507000091941609042036018BF106010BD00BF65
:10508000A4190020940D00202DE9F0410446FFF7FB
:10509000FFF93B4B3B481A689C46D2B900213A4A7B
:1050A0003A4B55071CBF073222F007021A605960BD
:1050B000374B23F00703C3E90011991AC2E9003105
:1050C000CCF80030334B1960334B19604FF000437C
:1050D0000360076827424ED1002C3FD004F108033B
:1050E00061071CBF23F007030833002B43D02A4A73
:1050F000166890469E423ED3244A156869689942D4
:1051000001D22868A8B9DCF80000A84233D028688A
:10511000C91A10291468106012D9E81842070BD078
:105120004FF0500383F31188BFF36F8FBFF34F8F9E
:10513000FEE72A460546E1E741606B60FFF780FF26
:105140006B681449F61A1F4300230868C8F800600A
:10515000864238BF0E6008346F602B60FFF736FA66
:1051600063070AD04FF0500383F31188BFF36F8FAA
:10517000BFF34F8FFEE70024F0E72046BDE8F08143
:10518000940D002098190020980D0020A4190020EB
:1051900090190020A01900209C19002010B5044689
:1051A00070B3184A50F8043C1268134208D14FF00B
:1051B000500383F31188BFF36F8FBFF34F8FFEE768
:1051C00050F8081C41B14FF0500383F31188BFF32E
:1051D0006F8FBFF34F8FFEE723EA020340F8043CD2
:1051E000FFF756F9084A54F8043C1168A4F1080086
:1051F0000B441360FFF724FFBDE81040FFF7E6B94A
:1052000010BD00BF981900209C19002070B50A46F7
:10521000044601B101224FF480711248FCF7D0FF1F
:105220000825104E002220213046FCF7C9FF230636
:105230004CBF0122002240213046FCF7C1FF013D56
:10524000012220213046FCF7BBFF640015F0FF056A
:10525000E4B2E7D1BDE8704001224FF4807101480B
:10526000FCF7AEBF0018014070B5B0240E4E00210F
:105270002046FFF7CBFF00210846FFF7C7FF0021BC
:105280001020FFF7C3FF002516F835000121013576
:10529000FFF7BCFF802DF7D10134E4B2B82C06F142
:1052A0000106E4D170BD00BF1C1C002008230020B3
:1052B0000749002201F832000132802AFAD1013B6D
:1052C00013F0FF0301F10101F3D1FFF7CDBF00BFE0
:1052D0001C1C0020030630B513D43F2911D801232C
:1052E00001F00705094CC908C1F10701C5F107051F
:1052F000C9B204EBC00003FA05F5435C12B12B43BD
:10530000435430BD23EA0503FAE700BF1C1C00200C
:105310002DE9F74FA2F1200598461E4BEDB203EBA5
:10532000051300930C23824689460C4600271A4A2F
:105330009DF830B003FB05230193B84502D103B0BB
:10534000BDE8F08FB8F10C0F0CBF019B009BDE5D38
:1053500004F10803DDB2330658BFBBFA8BF22146D5
:1053600004F101044CBF5A4652095046E4B2FFF71B
:10537000B1FFA4EB090276004245F6B207D14D46D3
:105380000AF101005FFA80FA2C460137D5E7A54201
:10539000E1D1F9E7936300081F5F0008F7B5044601
:1053A0000D460127561E16F8013F0BB903B0F0BD9C
:1053B0007A2C82BF1035EDB200243A2D03D9002596
:1053C000FFF774FF2C46009720460C2329463278BD
:1053D0000834FFF79DFFE4B2E5E7000010B5FCF7E5
:1053E000FDFE404B404C1A6A22F001021A621A6A12
:1053F00022F004021A62FCF7F7FE00228021204608
:10540000FCF7DEFE6420FCF7BBFC01222046802175
:10541000FCF7D6FE0021AE20FFF7F8FE0021D520D4
:10542000FFF7F4FE00215020FFF7F0FE0021A82036
:10543000FFF7ECFE00213F20FFF7E8FE0021D3201C
:10544000FFF7E4FE00210846FFF7E0FE00214020C0
:10545000FFF7DCFE00218D20FFF7D8FE002114208D
:10546000FFF7D4FE00212020FFF7D0FE002102200C
:10547000FFF7CCFE0021A120FFF7C8FE0021C020CD
:10548000FFF7C4FE0021DA20FFF7C0FE0021122042
:10549000FFF7BCFE00218120FFF7B8FE0021EF20BE
:1054A000FFF7B4FE0021D920FFF7B0FE0021F12064
:1054B000FFF7ACFE0021DB20FFF7A8FE0021302023
:1054C000FFF7A4FE0021A420FFF7A0FE0021A620E4
:1054D000FFF79CFE0021AF20FFF798FEBDE81040CB
:1054E000FFF7E4BE0010024000180140014B1868AD
:1054F000704700BF1000002070B500260C4D0D4C09
:10550000641BA410A64209D100F064FC00260A4DD9
:105510000A4C641BA410A64205D170BD55F8043B8B
:1055200098470136EEE755F8043B98470136F2E715
:10553000B8690008B8690008B8690008BC690008C3
:105540000A44914200F1FF3300D1704710B511F8C1
:10555000014B914203F8014FF9D110BD03460244BB
:10556000934200D1704703F8011BF9E70EB46FF0C6
:10557000004100B59CB01DAB0290069007910491CC
:105580000848094953F8042B0591006802A90193C2
:1055900000F070F80022029B1A701CB05DF804EB5A
:1055A00003B07047100000200802FFFF034611F807
:1055B000012B03F8012B002AF9D170472DE9F047A0
:1055C0008E6882469E420C4690461F4638D88A898D
:1055D00012F4906F32D0256809690133A5EB0109F7
:1055E00065694B4405EB450505EBD5756D109D428E
:1055F00038BF1D46530531D5294600F045FB064608
:1056000050B90C234FF0FF30CAF80030A38943F0A3
:105610004003A381BDE8F0874A462169FFF790FF68
:10562000A38923F4906343F08003A38126614E4451
:1056300026603E466561A5EB0905A560BE4200D91E
:105640003E4632464146206800F0B8FAA368226818
:105650009B1B32440020A3602260DBE72A4600F057
:105660006DFB06460028E1D15046216900F0C0FAE2
:10567000C7E700002DE9F04F98468B8907461B06C7
:105680000D4614469DB00ED50B6963B9402100F05C
:10569000FBFA2860286120B90C233B604FF0FF30F3
:1056A000D1E040236B610023099320238DF829303A
:1056B00030234FF00109CDF80C80DFF8A4818DF87C
:1056C0002A3023469A4613F8012B0AB1252AF9D12C
:1056D000BAEB040B0BD05B46224629463846FFF74F
:1056E0006DFF013000F0AA80099A5A4409929AF895
:1056F0000030002B00F0A28000234FF0FF32CDE9F4
:1057000005230AF1010A049307938DF853301A9385
:105710005446052214F8011B514800F041FA049A3E
:10572000D8B9D00644BF20238DF85330110744BFA9
:105730002B238DF853309AF800302A2B15D054467D
:1057400000204FF00A0C079A214611F8013B303B2C
:10575000092B4ED9B0B1079214E0A0EB080309FA67
:1057600003F31343A2460493D2E7039B191D1B685E
:105770000391002BBBBF5B4242F0020207930793E9
:10578000B8BF049223782E2B0CD163782A2B35D105
:10579000039B02341A1D1B680392002BB8BF4FF005
:1057A000FF330593DFF8C8A003225046217800F0AC
:1057B000F7F940B14023A0EB0A0003FA00F0049B84
:1057C00001340343049314F8011B062225488DF885
:1057D000281000F0E5F9002838D0234B1BBB039BB1
:1057E000073323F0070308330393099B33440993DA
:1057F00067E70C4601200CFB0232A5E700234FF0BF
:105800000A0C194601340593204610F8012B303A52
:10581000092A03D9002BC5D00591C3E7044601230B
:105820000CFB0121F0E703AB00932A4638460F4BEF
:1058300004A9AFF30080421C0646D6D1AB895B06B3
:105840003FF52CAF09981DB0BDE8F08F03AB009376
:105850002A463846054B04A900F07CF8EBE700BF68
:10586000836900088D69000800000000BD5500082C
:10587000896900082DE9F047164699468A680B6940
:1058800007469342B8BF1346336091F843200C4655
:10589000DDF820800AB1013333602368990642BFE6
:1058A000336802333360256815F0060506D104F12C
:1058B000190AE36832689B1AAB4228DC94F843204B
:1058C000131E226818BF012392062DD4494638467C
:1058D00004F14302C047013020D02368E56803F09B
:1058E0000603042B18BF002532684FF00006A3689A
:1058F00008BFAD1A226908BF25EAE5759342C4BF07
:105900009B1AED181A34B5421AD1002008E0012381
:10591000524649463846C047013003D14FF0FF3068
:10592000BDE8F0870135C4E73020E11881F8430075
:105930005A1C94F845102244023382F84310C5E7FC
:105940000123224649463846C0470130E6D0013699
:10595000D9E700002DE9FF470C46277E9146782FB6
:1059600080469A460C9904F1430207D8622F0AD860
:10597000002F00F0D980582F00F0A48004F14206D7
:1059800084F842703AE0A7F16303152BF6D801A022
:1059900050F823F0ED590008015A00087D5900081D
:1059A0007D5900087D5900087D590008015A0008FA
:1059B0007D5900087D5900087D5900087D5900086F
:1059C0000F5B0008315A0008F15A00087D590008A1
:1059D0007D590008315B00087D590008315A0008E4
:1059E0007D5900087D590008F95A00080B6804F138
:1059F00042061A1D1B680A6084F842300123A4E0A5
:105A0000256808682E0600F104030AD505680B60B6
:105A1000002D03DA2D236D4284F843300A235E48BB
:105A200019E015F0400F05680B6018BF2DB2EFE7C5
:105A30000B682568181D0860280601D51D6802E05E
:105A40006906FBD51D886F2F0CBF08230A23524817
:105A5000002184F843106668002EA8BF2168A66064
:105A6000A4BF21F0040121600DB9002E4DD01646CF
:105A7000B5FBF3F103FB1157C75D06F8017D2F4617
:105A8000BB420D46F4D9082B0BD12368DF0708D59C
:105A9000236961689942DEBF302306F8013C06F1B4
:105AA000FF36921B22614B4621464046CDF800A0AE
:105AB00003AAFFF7DFFE01304CD14FF0FF3004B0F6
:105AC000BDE8F087344884F845700E68236856F8BE
:105AD000045B1F060E6014D5D90744BF43F02003B2
